{
  "contractName": "product",
  "abi": [
    {
      "inputs": [
        {
          "internalType": "bytes32",
          "name": "",
          "type": "bytes32"
        }
      ],
      "name": "consumerDetails",
      "outputs": [
        {
          "internalType": "uint256",
          "name": "consumerId",
          "type": "uint256"
        },
        {
          "internalType": "bytes32",
          "name": "consumerCode",
          "type": "bytes32"
        },
        {
          "internalType": "bytes32",
          "name": "consumerName",
          "type": "bytes32"
        }
      ],
      "stateMutability": "view",
      "type": "function"
    },
    {
      "inputs": [
        {
          "internalType": "uint256",
          "name": "",
          "type": "uint256"
        }
      ],
      "name": "consumers",
      "outputs": [
        {
          "internalType": "uint256",
          "name": "consumerId",
          "type": "uint256"
        },
        {
          "internalType": "bytes32",
          "name": "consumerCode",
          "type": "bytes32"
        },
        {
          "internalType": "bytes32",
          "name": "consumerName",
          "type": "bytes32"
        }
      ],
      "stateMutability": "view",
      "type": "function"
    },
    {
      "inputs": [
        {
          "internalType": "bytes32",
          "name": "",
          "type": "bytes32"
        },
        {
          "internalType": "uint256",
          "name": "",
          "type": "uint256"
        }
      ],
      "name": "consumersWithSeller",
      "outputs": [
        {
          "internalType": "bytes32",
          "name": "",
          "type": "bytes32"
        }
      ],
      "stateMutability": "view",
      "type": "function"
    },
    {
      "inputs": [
        {
          "internalType": "uint256",
          "name": "",
          "type": "uint256"
        }
      ],
      "name": "productItems",
      "outputs": [
        {
          "internalType": "uint256",
          "name": "productId",
          "type": "uint256"
        },
        {
          "internalType": "bytes32",
          "name": "productSN",
          "type": "bytes32"
        },
        {
          "internalType": "bytes32",
          "name": "productName",
          "type": "bytes32"
        },
        {
          "internalType": "bytes32",
          "name": "productBrand",
          "type": "bytes32"
        },
        {
          "internalType": "uint256",
          "name": "productPrice",
          "type": "uint256"
        },
        {
          "internalType": "bytes32",
          "name": "productStatus",
          "type": "bytes32"
        }
      ],
      "stateMutability": "view",
      "type": "function"
    },
    {
      "inputs": [
        {
          "internalType": "bytes32",
          "name": "",
          "type": "bytes32"
        }
      ],
      "name": "productMap",
      "outputs": [
        {
          "internalType": "uint256",
          "name": "",
          "type": "uint256"
        }
      ],
      "stateMutability": "view",
      "type": "function"
    },
    {
      "inputs": [
        {
          "internalType": "bytes32",
          "name": "",
          "type": "bytes32"
        }
      ],
      "name": "productsForSale",
      "outputs": [
        {
          "internalType": "bytes32",
          "name": "",
          "type": "bytes32"
        }
      ],
      "stateMutability": "view",
      "type": "function"
    },
    {
      "inputs": [
        {
          "internalType": "bytes32",
          "name": "",
          "type": "bytes32"
        }
      ],
      "name": "productsManufactured",
      "outputs": [
        {
          "internalType": "bytes32",
          "name": "",
          "type": "bytes32"
        }
      ],
      "stateMutability": "view",
      "type": "function"
    },
    {
      "inputs": [
        {
          "internalType": "bytes32",
          "name": "",
          "type": "bytes32"
        }
      ],
      "name": "productsSold",
      "outputs": [
        {
          "internalType": "bytes32",
          "name": "",
          "type": "bytes32"
        }
      ],
      "stateMutability": "view",
      "type": "function"
    },
    {
      "inputs": [
        {
          "internalType": "bytes32",
          "name": "",
          "type": "bytes32"
        },
        {
          "internalType": "uint256",
          "name": "",
          "type": "uint256"
        }
      ],
      "name": "productsWithConsumer",
      "outputs": [
        {
          "internalType": "bytes32",
          "name": "",
          "type": "bytes32"
        }
      ],
      "stateMutability": "view",
      "type": "function"
    },
    {
      "inputs": [
        {
          "internalType": "bytes32",
          "name": "",
          "type": "bytes32"
        },
        {
          "internalType": "uint256",
          "name": "",
          "type": "uint256"
        }
      ],
      "name": "productsWithSeller",
      "outputs": [
        {
          "internalType": "bytes32",
          "name": "",
          "type": "bytes32"
        }
      ],
      "stateMutability": "view",
      "type": "function"
    },
    {
      "inputs": [
        {
          "internalType": "uint256",
          "name": "",
          "type": "uint256"
        }
      ],
      "name": "sellers",
      "outputs": [
        {
          "internalType": "uint256",
          "name": "sellerId",
          "type": "uint256"
        },
        {
          "internalType": "bytes32",
          "name": "sellerName",
          "type": "bytes32"
        },
        {
          "internalType": "bytes32",
          "name": "sellerBrand",
          "type": "bytes32"
        },
        {
          "internalType": "bytes32",
          "name": "sellerCode",
          "type": "bytes32"
        },
        {
          "internalType": "uint256",
          "name": "sellerNum",
          "type": "uint256"
        },
        {
          "internalType": "bytes32",
          "name": "sellerManager",
          "type": "bytes32"
        },
        {
          "internalType": "bytes32",
          "name": "sellerAddress",
          "type": "bytes32"
        }
      ],
      "stateMutability": "view",
      "type": "function"
    },
    {
      "inputs": [
        {
          "internalType": "bytes32",
          "name": "",
          "type": "bytes32"
        },
        {
          "internalType": "uint256",
          "name": "",
          "type": "uint256"
        }
      ],
      "name": "sellersWithManufacturer",
      "outputs": [
        {
          "internalType": "bytes32",
          "name": "",
          "type": "bytes32"
        }
      ],
      "stateMutability": "view",
      "type": "function"
    },
    {
      "inputs": [
        {
          "internalType": "bytes32",
          "name": "_manufacturerId",
          "type": "bytes32"
        },
        {
          "internalType": "bytes32",
          "name": "_sellerName",
          "type": "bytes32"
        },
        {
          "internalType": "bytes32",
          "name": "_sellerBrand",
          "type": "bytes32"
        },
        {
          "internalType": "bytes32",
          "name": "_sellerCode",
          "type": "bytes32"
        },
        {
          "internalType": "uint256",
          "name": "_sellerNum",
          "type": "uint256"
        },
        {
          "internalType": "bytes32",
          "name": "_sellerManager",
          "type": "bytes32"
        },
        {
          "internalType": "bytes32",
          "name": "_sellerAddress",
          "type": "bytes32"
        }
      ],
      "name": "addSeller",
      "outputs": [],
      "stateMutability": "nonpayable",
      "type": "function"
    },
    {
      "inputs": [],
      "name": "viewSellers",
      "outputs": [
        {
          "internalType": "uint256[]",
          "name": "",
          "type": "uint256[]"
        },
        {
          "internalType": "bytes32[]",
          "name": "",
          "type": "bytes32[]"
        },
        {
          "internalType": "bytes32[]",
          "name": "",
          "type": "bytes32[]"
        },
        {
          "internalType": "bytes32[]",
          "name": "",
          "type": "bytes32[]"
        },
        {
          "internalType": "uint256[]",
          "name": "",
          "type": "uint256[]"
        },
        {
          "internalType": "bytes32[]",
          "name": "",
          "type": "bytes32[]"
        },
        {
          "internalType": "bytes32[]",
          "name": "",
          "type": "bytes32[]"
        }
      ],
      "stateMutability": "view",
      "type": "function"
    },
    {
      "inputs": [
        {
          "internalType": "bytes32",
          "name": "_manufactuerID",
          "type": "bytes32"
        },
        {
          "internalType": "bytes32",
          "name": "_productName",
          "type": "bytes32"
        },
        {
          "internalType": "bytes32",
          "name": "_productSN",
          "type": "bytes32"
        },
        {
          "internalType": "bytes32",
          "name": "_productBrand",
          "type": "bytes32"
        },
        {
          "internalType": "uint256",
          "name": "_productPrice",
          "type": "uint256"
        }
      ],
      "name": "addProduct",
      "outputs": [],
      "stateMutability": "nonpayable",
      "type": "function"
    },
    {
      "inputs": [],
      "name": "viewProductItems",
      "outputs": [
        {
          "internalType": "uint256[]",
          "name": "",
          "type": "uint256[]"
        },
        {
          "internalType": "bytes32[]",
          "name": "",
          "type": "bytes32[]"
        },
        {
          "internalType": "bytes32[]",
          "name": "",
          "type": "bytes32[]"
        },
        {
          "internalType": "bytes32[]",
          "name": "",
          "type": "bytes32[]"
        },
        {
          "internalType": "uint256[]",
          "name": "",
          "type": "uint256[]"
        },
        {
          "internalType": "bytes32[]",
          "name": "",
          "type": "bytes32[]"
        }
      ],
      "stateMutability": "view",
      "type": "function"
    },
    {
      "inputs": [
        {
          "internalType": "bytes32",
          "name": "_productSN",
          "type": "bytes32"
        },
        {
          "internalType": "bytes32",
          "name": "_sellerCode",
          "type": "bytes32"
        }
      ],
      "name": "manufacturerSellProduct",
      "outputs": [],
      "stateMutability": "nonpayable",
      "type": "function"
    },
    {
      "inputs": [
        {
          "internalType": "bytes32",
          "name": "_productSN",
          "type": "bytes32"
        },
        {
          "internalType": "bytes32",
          "name": "_consumerCode",
          "type": "bytes32"
        },
        {
          "internalType": "bytes32",
          "name": "_consumerName",
          "type": "bytes32"
        }
      ],
      "name": "sellerSellProduct",
      "outputs": [],
      "stateMutability": "nonpayable",
      "type": "function"
    },
    {
      "inputs": [
        {
          "internalType": "bytes32",
          "name": "_sellerCode",
          "type": "bytes32"
        }
      ],
      "name": "queryProductsList",
      "outputs": [
        {
          "internalType": "uint256[]",
          "name": "",
          "type": "uint256[]"
        },
        {
          "internalType": "bytes32[]",
          "name": "",
          "type": "bytes32[]"
        },
        {
          "internalType": "bytes32[]",
          "name": "",
          "type": "bytes32[]"
        },
        {
          "internalType": "bytes32[]",
          "name": "",
          "type": "bytes32[]"
        },
        {
          "internalType": "uint256[]",
          "name": "",
          "type": "uint256[]"
        },
        {
          "internalType": "bytes32[]",
          "name": "",
          "type": "bytes32[]"
        }
      ],
      "stateMutability": "view",
      "type": "function"
    },
    {
      "inputs": [
        {
          "internalType": "bytes32",
          "name": "_manufacturerCode",
          "type": "bytes32"
        }
      ],
      "name": "querySellersList",
      "outputs": [
        {
          "internalType": "uint256[]",
          "name": "",
          "type": "uint256[]"
        },
        {
          "internalType": "bytes32[]",
          "name": "",
          "type": "bytes32[]"
        },
        {
          "internalType": "bytes32[]",
          "name": "",
          "type": "bytes32[]"
        },
        {
          "internalType": "bytes32[]",
          "name": "",
          "type": "bytes32[]"
        },
        {
          "internalType": "uint256[]",
          "name": "",
          "type": "uint256[]"
        },
        {
          "internalType": "bytes32[]",
          "name": "",
          "type": "bytes32[]"
        },
        {
          "internalType": "bytes32[]",
          "name": "",
          "type": "bytes32[]"
        }
      ],
      "stateMutability": "view",
      "type": "function"
    },
    {
      "inputs": [
        {
          "internalType": "bytes32",
          "name": "_consumerCode",
          "type": "bytes32"
        }
      ],
      "name": "getPurchaseHistory",
      "outputs": [
        {
          "internalType": "bytes32[]",
          "name": "",
          "type": "bytes32[]"
        },
        {
          "internalType": "bytes32[]",
          "name": "",
          "type": "bytes32[]"
        },
        {
          "internalType": "bytes32[]",
          "name": "",
          "type": "bytes32[]"
        }
      ],
      "stateMutability": "view",
      "type": "function"
    },
    {
      "inputs": [
        {
          "internalType": "bytes32",
          "name": "_sellerCode",
          "type": "bytes32"
        }
      ],
      "name": "getConsumersForSeller",
      "outputs": [
        {
          "internalType": "bytes32[]",
          "name": "consumerCodes",
          "type": "bytes32[]"
        },
        {
          "internalType": "bytes32[]",
          "name": "consumerNames",
          "type": "bytes32[]"
        }
      ],
      "stateMutability": "view",
      "type": "function"
    },
    {
      "inputs": [
        {
          "internalType": "bytes32",
          "name": "_productSN",
          "type": "bytes32"
        },
        {
          "internalType": "bytes32",
          "name": "_consumerCode",
          "type": "bytes32"
        }
      ],
      "name": "verifyProduct",
      "outputs": [
        {
          "internalType": "bool",
          "name": "",
          "type": "bool"
        }
      ],
      "stateMutability": "view",
      "type": "function"
    }
  ],
  "bytecode": "0x608060405234801561001057600080fd5b506127ea806100206000396000f3fe608060405234801561001057600080fd5b506004361061014d5760003560e01c80639316bff0116100c3578063c20805b41161007c578063c20805b41461043f578063caaf27511461046f578063cd4f6a2e146104a4578063cee26ed5146104d4578063e262113f1461050a578063e5d194ab1461053a5761014d565b80639316bff0146103305780639cd777dd1461034c5780639ea4695d1461037c578063a090f47c146103ae578063a3843e12146103de578063c030f2e11461040f5761014d565b8063344b5d5111610115578063344b5d511461021b5780634651ed3d1461024b5780634b9930011461027d5780638577a701146102ad5780638bd0c869146102c957806392162bc4146102fb5761014d565b8063032f95e614610152578063100b6ba214610176578063130aa81f146101a65780631836bd4b146101dc5780631b3658c8146101ff575b600080fd5b61015a610556565b60405161016d97969594939291906120f8565b60405180910390f35b610190600480360381019061018b91906121c9565b610943565b60405161019d9190612205565b60405180910390f35b6101c060048036038101906101bb91906121c9565b61095b565b6040516101d397969594939291906120f8565b60405180910390f35b6101e4610e1e565b6040516101f696959493929190612220565b60405180910390f35b610219600480360381019061021491906122d7565b611186565b005b61023560048036038101906102309190612379565b611272565b60405161024291906123d4565b60405180910390f35b610265600480360381019061026091906123ef565b6112a3565b6040516102749392919061242b565b60405180910390f35b61029760048036038101906102929190612462565b6112cd565b6040516102a491906124a2565b60405180910390f35b6102c760048036038101906102c29190612379565b6112fe565b005b6102e360048036038101906102de91906121c9565b611354565b6040516102f29392919061242b565b60405180910390f35b610315600480360381019061031091906121c9565b61137e565b60405161032796959493929190612220565b60405180910390f35b61034a600480360381019061034591906124bd565b6117b7565b005b61036660048036038101906103619190612462565b6118ab565b60405161037391906124a2565b60405180910390f35b610396600480360381019061039191906121c9565b6118dc565b6040516103a593929190612538565b60405180910390f35b6103c860048036038101906103c391906121c9565b611ab0565b6040516103d591906124a2565b60405180910390f35b6103f860048036038101906103f391906121c9565b611ac8565b604051610406929190612584565b60405180910390f35b61042960048036038101906104249190612462565b611bfc565b60405161043691906124a2565b60405180910390f35b610459600480360381019061045491906121c9565b611c2d565b60405161046691906124a2565b60405180910390f35b610489600480360381019061048491906123ef565b611c45565b60405161049b969594939291906125bb565b60405180910390f35b6104be60048036038101906104b991906121c9565b611c81565b6040516104cb91906124a2565b60405180910390f35b6104ee60048036038101906104e991906123ef565b611c99565b604051610501979695949392919061261c565b60405180910390f35b610524600480360381019061051f9190612462565b611cdb565b60405161053191906124a2565b60405180910390f35b610554600480360381019061054f919061268b565b611d0c565b005b60608060608060608060606000805467ffffffffffffffff81111561057e5761057d6126de565b5b6040519080825280602002602001820160405280156105ac5781602001602082028036833780820191505090505b5090506000805467ffffffffffffffff8111156105cc576105cb6126de565b5b6040519080825280602002602001820160405280156105fa5781602001602082028036833780820191505090505b5090506000805467ffffffffffffffff81111561061a576106196126de565b5b6040519080825280602002602001820160405280156106485781602001602082028036833780820191505090505b5090506000805467ffffffffffffffff811115610668576106676126de565b5b6040519080825280602002602001820160405280156106965781602001602082028036833780820191505090505b5090506000805467ffffffffffffffff8111156106b6576106b56126de565b5b6040519080825280602002602001820160405280156106e45781602001602082028036833780820191505090505b5090506000805467ffffffffffffffff811115610704576107036126de565b5b6040519080825280602002602001820160405280156107325781602001602082028036833780820191505090505b5090506000805467ffffffffffffffff811115610752576107516126de565b5b6040519080825280602002602001820160405280156107805781602001602082028036833780820191505090505b50905060005b60005481101561091d5760066000828152602001908152602001600020600001548882815181106107ba576107b961270d565b5b60200260200101818152505060066000828152602001908152602001600020600101548782815181106107f0576107ef61270d565b5b60200260200101818152505060066000828152602001908152602001600020600201548682815181106108265761082561270d565b5b602002602001018181525050600660008281526020019081526020016000206003015485828151811061085c5761085b61270d565b5b60200260200101818152505060066000828152602001908152602001600020600401548482815181106108925761089161270d565b5b60200260200101818152505060066000828152602001908152602001600020600501548382815181106108c8576108c761270d565b5b60200260200101818152505060066000828152602001908152602001600020600601548282815181106108fe576108fd61270d565b5b60200260200101818152505080806109159061276b565b915050610786565b50868686868686869d509d509d509d509d509d509d505050505050505090919293949596565b60086020528060005260406000206000915090505481565b60608060608060608060606000600e60008a81526020019081526020016000208054806020026020016040519081016040528092919081815260200182805480156109c557602002820191906000526020600020905b8154815260200190600101908083116109b1575b50505050509050600080805467ffffffffffffffff8111156109ea576109e96126de565b5b604051908082528060200260200182016040528015610a185781602001602082028036833780820191505090505b5090506000805467ffffffffffffffff811115610a3857610a376126de565b5b604051908082528060200260200182016040528015610a665781602001602082028036833780820191505090505b5090506000805467ffffffffffffffff811115610a8657610a856126de565b5b604051908082528060200260200182016040528015610ab45781602001602082028036833780820191505090505b5090506000805467ffffffffffffffff811115610ad457610ad36126de565b5b604051908082528060200260200182016040528015610b025781602001602082028036833780820191505090505b5090506000805467ffffffffffffffff811115610b2257610b216126de565b5b604051908082528060200260200182016040528015610b505781602001602082028036833780820191505090505b5090506000805467ffffffffffffffff811115610b7057610b6f6126de565b5b604051908082528060200260200182016040528015610b9e5781602001602082028036833780820191505090505b5090506000805467ffffffffffffffff811115610bbe57610bbd6126de565b5b604051908082528060200260200182016040528015610bec5781602001602082028036833780820191505090505b50905060005b600054811015610df45760005b8a51811015610de0578a8181518110610c1b57610c1a61270d565b5b602002602001015160066000848152602001908152602001600020600301541415610dcd576006600083815260200190815260200160002060000154898b81518110610c6a57610c6961270d565b5b6020026020010181815250506006600083815260200190815260200160002060010154888b81518110610ca057610c9f61270d565b5b6020026020010181815250506006600083815260200190815260200160002060020154878b81518110610cd657610cd561270d565b5b6020026020010181815250506006600083815260200190815260200160002060030154868b81518110610d0c57610d0b61270d565b5b6020026020010181815250506006600083815260200190815260200160002060040154858b81518110610d4257610d4161270d565b5b6020026020010181815250506006600083815260200190815260200160002060050154848b81518110610d7857610d7761270d565b5b6020026020010181815250506006600083815260200190815260200160002060060154838b81518110610dae57610dad61270d565b5b6020026020010181815250508980610dc59061276b565b9a5050610de0565b8080610dd89061276b565b915050610bff565b508080610dec9061276b565b915050610bf2565b50868686868686869f509f509f509f509f509f509f50505050505050505050919395979092949650565b606080606080606080600060015467ffffffffffffffff811115610e4557610e446126de565b5b604051908082528060200260200182016040528015610e735781602001602082028036833780820191505090505b509050600060015467ffffffffffffffff811115610e9457610e936126de565b5b604051908082528060200260200182016040528015610ec25781602001602082028036833780820191505090505b509050600060015467ffffffffffffffff811115610ee357610ee26126de565b5b604051908082528060200260200182016040528015610f115781602001602082028036833780820191505090505b509050600060015467ffffffffffffffff811115610f3257610f316126de565b5b604051908082528060200260200182016040528015610f605781602001602082028036833780820191505090505b509050600060015467ffffffffffffffff811115610f8157610f806126de565b5b604051908082528060200260200182016040528015610faf5781602001602082028036833780820191505090505b509050600060015467ffffffffffffffff811115610fd057610fcf6126de565b5b604051908082528060200260200182016040528015610ffe5781602001602082028036833780820191505090505b50905060005b6001548110156111655760076000828152602001908152602001600020600001548782815181106110385761103761270d565b5b602002602001018181525050600760008281526020019081526020016000206001015486828151811061106e5761106d61270d565b5b60200260200101818152505060076000828152602001908152602001600020600201548582815181106110a4576110a361270d565b5b60200260200101818152505060076000828152602001908152602001600020600301548482815181106110da576110d961270d565b5b60200260200101818152505060076000828152602001908152602001600020600401548382815181106111105761110f61270d565b5b60200260200101818152505060076000828152602001908152602001600020600501548282815181106111465761114561270d565b5b602002602001018181525050808061115d9061276b565b915050611004565b508585858585859b509b509b509b509b509b50505050505050909192939495565b6040518060e001604052806000548152602001878152602001868152602001858152602001848152602001838152602001828152506006600080548152602001908152602001600020600082015181600001556020820151816001015560408201518160020155606082015181600301556080820151816004015560a0820151816005015560c0820151816006015590505060008081548092919061122a9061276b565b9190505550600e600088815260200190815260200160002084908060018154018082558091505060019003906000526020600020016000909190919091505550505050505050565b600081600b6000858152602001908152602001600020541415611298576001905061129d565b600090505b92915050565b60036020528060005260406000206000915090508060000154908060010154908060020154905083565b600c60205281600052604060002081815481106112e957600080fd5b90600052602060002001600091509150505481565b600c600082815260200190815260200160002082908060018154018082558091505060019003906000526020600020016000909190919091505580600a6000848152602001908152602001600020819055505050565b60046020528060005260406000206000915090508060000154908060010154908060020154905083565b6060806060806060806000600c60008981526020019081526020016000208054806020026020016040519081016040528092919081815260200182805480156113e657602002820191906000526020600020905b8154815260200190600101908083116113d2575b5050505050905060008060015467ffffffffffffffff81111561140c5761140b6126de565b5b60405190808252806020026020018201604052801561143a5781602001602082028036833780820191505090505b509050600060015467ffffffffffffffff81111561145b5761145a6126de565b5b6040519080825280602002602001820160405280156114895781602001602082028036833780820191505090505b509050600060015467ffffffffffffffff8111156114aa576114a96126de565b5b6040519080825280602002602001820160405280156114d85781602001602082028036833780820191505090505b509050600060015467ffffffffffffffff8111156114f9576114f86126de565b5b6040519080825280602002602001820160405280156115275781602001602082028036833780820191505090505b509050600060015467ffffffffffffffff811115611548576115476126de565b5b6040519080825280602002602001820160405280156115765781602001602082028036833780820191505090505b509050600060015467ffffffffffffffff811115611597576115966126de565b5b6040519080825280602002602001820160405280156115c55781602001602082028036833780820191505090505b50905060005b6001548110156117935760005b895181101561177f578981815181106115f4576115f361270d565b5b60200260200101516007600084815260200190815260200160002060010154141561176c576007600083815260200190815260200160002060000154888a815181106116435761164261270d565b5b6020026020010181815250506007600083815260200190815260200160002060010154878a815181106116795761167861270d565b5b6020026020010181815250506007600083815260200190815260200160002060020154868a815181106116af576116ae61270d565b5b6020026020010181815250506007600083815260200190815260200160002060030154858a815181106116e5576116e461270d565b5b6020026020010181815250506007600083815260200190815260200160002060040154848a8151811061171b5761171a61270d565b5b6020026020010181815250506007600083815260200190815260200160002060050154838a815181106117515761175061270d565b5b60200260200101818152505088806117689061276b565b9950505b80806117779061276b565b9150506115d8565b50808061178b9061276b565b9150506115cb565b508585858585859d509d509d509d509d509d50505050505050505091939550919395565b6040518060c0016040528060015481526020018481526020018581526020018381526020018281526020017f417661696c61626c650000000000000000000000000000000000000000000000815250600760006001548152602001908152602001600020600082015181600001556020820151816001015560408201518160020155606082015181600301556080820151816004015560a082015181600501559050506001546008600085815260200190815260200160002081905550600160008154809291906118879061276b565b91905055508460096000858152602001908152602001600020819055505050505050565b600d60205281600052604060002081815481106118c757600080fd5b90600052602060002001600091509150505481565b60608060606000600d600086815260200190815260200160002080548060200260200160405190810160405280929190818152602001828054801561194057602002820191906000526020600020905b81548152602001906001019080831161192c575b505050505090506000815167ffffffffffffffff811115611964576119636126de565b5b6040519080825280602002602001820160405280156119925781602001602082028036833780820191505090505b5090506000825167ffffffffffffffff8111156119b2576119b16126de565b5b6040519080825280602002602001820160405280156119e05781602001602082028036833780820191505090505b50905060005b8351811015611a9c57600a6000858381518110611a0657611a0561270d565b5b6020026020010151815260200190815260200160002054838281518110611a3057611a2f61270d565b5b60200260200101818152505060096000858381518110611a5357611a5261270d565b5b6020026020010151815260200190815260200160002054828281518110611a7d57611a7c61270d565b5b6020026020010181815250508080611a949061276b565b9150506119e6565b508282829550955095505050509193909250565b600a6020528060005260406000206000915090505481565b606080600060056000858152602001908152602001600020805480602002602001604051908101604052809291908181526020018280548015611b2a57602002820191906000526020600020905b815481526020019060010190808311611b16575b505050505090506000815167ffffffffffffffff811115611b4e57611b4d6126de565b5b604051908082528060200260200182016040528015611b7c5781602001602082028036833780820191505090505b50905060005b8251811015611bee5760046000848381518110611ba257611ba161270d565b5b6020026020010151815260200190815260200160002060020154828281518110611bcf57611bce61270d565b5b6020026020010181815250508080611be69061276b565b915050611b82565b508181935093505050915091565b60056020528160005260406000208181548110611c1857600080fd5b90600052602060002001600091509150505481565b60096020528060005260406000206000915090505481565b60076020528060005260406000206000915090508060000154908060010154908060020154908060030154908060040154908060050154905086565b600b6020528060005260406000206000915090505481565b60066020528060005260406000206000915090508060000154908060010154908060020154908060030154908060040154908060050154908060060154905087565b600e6020528160005260406000208181548110611cf757600080fd5b90600052602060002001600091509150505481565b6000806000806001541115611d6057600091505b600154821015611d5f578560076000848152602001908152602001600020600101541415611d4c578190505b8180611d579061276b565b925050611d20565b5b600760008281526020019081526020016000206005015492507f417661696c61626c650000000000000000000000000000000000000000000000831415611f60577f4e410000000000000000000000000000000000000000000000000000000000006007600083815260200190815260200160002060050181905550600d600086815260200190815260200160002086908060018154018082558091505060019003906000526020600020016000909190919091505584600b6000888152602001908152602001600020819055506000801b60046000878152602001908152602001600020600101541415611f0c57604051806060016040528060025481526020018681526020018581525060036000600254815260200190815260200160002060008201518160000155602082015181600101556040820151816002015590505060405180606001604052806002548152602001868152602001858152506004600087815260200190815260200160002060008201518160000155602082015181600101556040820151816002015590505060026000815480929190611f069061276b565b91905055505b6000600a600088815260200190815260200160002054905060056000828152602001908152602001600020869080600181540180825580915050600190039060005260206000200160009091909190915055505b505050505050565b600081519050919050565b600082825260208201905092915050565b6000819050602082019050919050565b6000819050919050565b611fa781611f94565b82525050565b6000611fb98383611f9e565b60208301905092915050565b6000602082019050919050565b6000611fdd82611f68565b611fe78185611f73565b9350611ff283611f84565b8060005b8381101561202357815161200a8882611fad565b975061201583611fc5565b925050600181019050611ff6565b5085935050505092915050565b600081519050919050565b600082825260208201905092915050565b6000819050602082019050919050565b6000819050919050565b61206f8161205c565b82525050565b60006120818383612066565b60208301905092915050565b6000602082019050919050565b60006120a582612030565b6120af818561203b565b93506120ba8361204c565b8060005b838110156120eb5781516120d28882612075565b97506120dd8361208d565b9250506001810190506120be565b5085935050505092915050565b600060e0820190508181036000830152612112818a611fd2565b90508181036020830152612126818961209a565b9050818103604083015261213a818861209a565b9050818103606083015261214e818761209a565b905081810360808301526121628186611fd2565b905081810360a0830152612176818561209a565b905081810360c083015261218a818461209a565b905098975050505050505050565b600080fd5b6121a68161205c565b81146121b157600080fd5b50565b6000813590506121c38161219d565b92915050565b6000602082840312156121df576121de612198565b5b60006121ed848285016121b4565b91505092915050565b6121ff81611f94565b82525050565b600060208201905061221a60008301846121f6565b92915050565b600060c082019050818103600083015261223a8189611fd2565b9050818103602083015261224e818861209a565b90508181036040830152612262818761209a565b90508181036060830152612276818661209a565b9050818103608083015261228a8185611fd2565b905081810360a083015261229e818461209a565b9050979650505050505050565b6122b481611f94565b81146122bf57600080fd5b50565b6000813590506122d1816122ab565b92915050565b600080600080600080600060e0888a0312156122f6576122f5612198565b5b60006123048a828b016121b4565b97505060206123158a828b016121b4565b96505060406123268a828b016121b4565b95505060606123378a828b016121b4565b94505060806123488a828b016122c2565b93505060a06123598a828b016121b4565b92505060c061236a8a828b016121b4565b91505092959891949750929550565b600080604083850312156123905761238f612198565b5b600061239e858286016121b4565b92505060206123af858286016121b4565b9150509250929050565b60008115159050919050565b6123ce816123b9565b82525050565b60006020820190506123e960008301846123c5565b92915050565b60006020828403121561240557612404612198565b5b6000612413848285016122c2565b91505092915050565b6124258161205c565b82525050565b600060608201905061244060008301866121f6565b61244d602083018561241c565b61245a604083018461241c565b949350505050565b6000806040838503121561247957612478612198565b5b6000612487858286016121b4565b9250506020612498858286016122c2565b9150509250929050565b60006020820190506124b7600083018461241c565b92915050565b600080600080600060a086880312156124d9576124d8612198565b5b60006124e7888289016121b4565b95505060206124f8888289016121b4565b9450506040612509888289016121b4565b935050606061251a888289016121b4565b925050608061252b888289016122c2565b9150509295509295909350565b60006060820190508181036000830152612552818661209a565b90508181036020830152612566818561209a565b9050818103604083015261257a818461209a565b9050949350505050565b6000604082019050818103600083015261259e818561209a565b905081810360208301526125b2818461209a565b90509392505050565b600060c0820190506125d060008301896121f6565b6125dd602083018861241c565b6125ea604083018761241c565b6125f7606083018661241c565b61260460808301856121f6565b61261160a083018461241c565b979650505050505050565b600060e082019050612631600083018a6121f6565b61263e602083018961241c565b61264b604083018861241c565b612658606083018761241c565b61266560808301866121f6565b61267260a083018561241c565b61267f60c083018461241c565b98975050505050505050565b6000806000606084860312156126a4576126a3612198565b5b60006126b2868287016121b4565b93505060206126c3868287016121b4565b92505060406126d4868287016121b4565b9150509250925092565b7f4e487b7100000000000000000000000000000000000000000000000000000000600052604160045260246000fd5b7f4e487b7100000000000000000000000000000000000000000000000000000000600052603260045260246000fd5b7f4e487b7100000000000000000000000000000000000000000000000000000000600052601160045260246000fd5b600061277682611f94565b91507fffffffffffffffffffffffffffffffffffffffffffffffffffffffffffffffff8214156127a9576127a861273c565b5b60018201905091905056fea26469706673582212207e313e1c51c26441c57fe479053721c251a822cfa7a628878e2f9054890a1d3f64736f6c634300080c0033",
  "immutableReferences": {},
  "source": "pragma solidity ^0.8.12;\r\n\r\ncontract product {\r\n\r\n    uint256 sellerCount;\r\n    uint256 productCount;\r\n    uint256 consumerCount;\r\n\r\n    struct consumer {\r\n    uint256 consumerId;\r\n    bytes32 consumerCode;\r\n    bytes32 consumerName;\r\n}\r\n\r\nmapping(uint => consumer) public consumers;\r\nmapping(bytes32 => consumer) public consumerDetails; // consumerCode => consumer\r\nmapping(bytes32 => bytes32[]) public consumersWithSeller; // sellerCode => list of consumerCodes\r\n\r\n\r\n    struct seller{\r\n        uint256 sellerId;\r\n        bytes32 sellerName;\r\n        bytes32 sellerBrand;\r\n        bytes32 sellerCode;\r\n        uint256 sellerNum;\r\n        bytes32 sellerManager;\r\n        bytes32 sellerAddress;\r\n    }\r\n    mapping(uint=>seller) public sellers;\r\n\r\n    struct productItem{\r\n        uint256 productId;\r\n        bytes32 productSN;\r\n        bytes32 productName;\r\n        bytes32 productBrand;\r\n        uint256 productPrice;\r\n        bytes32 productStatus;\r\n    }\r\n\r\n    mapping(uint256=>productItem) public productItems;\r\n    mapping(bytes32=>uint256) public productMap;\r\n    mapping(bytes32=>bytes32) public productsManufactured;\r\n    mapping(bytes32=>bytes32) public productsForSale;\r\n    mapping(bytes32=>bytes32) public productsSold;\r\n    mapping(bytes32=>bytes32[]) public productsWithSeller;\r\n    mapping(bytes32=>bytes32[]) public productsWithConsumer;\r\n    mapping(bytes32=>bytes32[]) public sellersWithManufacturer;\r\n\r\n\r\n    //SELLER SECTION\r\n\r\n    function addSeller(bytes32 _manufacturerId, bytes32 _sellerName, bytes32 _sellerBrand, bytes32 _sellerCode,\r\n    uint256 _sellerNum, bytes32 _sellerManager, bytes32 _sellerAddress) public{\r\n        sellers[sellerCount] = seller(sellerCount, _sellerName, _sellerBrand, _sellerCode,\r\n        _sellerNum, _sellerManager, _sellerAddress);\r\n        sellerCount++;\r\n\r\n        sellersWithManufacturer[_manufacturerId].push(_sellerCode);\r\n    }\r\n\r\n\r\n    function viewSellers () public view returns(uint256[] memory, bytes32[] memory, bytes32[] memory, bytes32[] memory, uint256[] memory, bytes32[] memory, bytes32[] memory) {\r\n        uint256[] memory ids = new uint256[](sellerCount);\r\n        bytes32[] memory snames = new bytes32[](sellerCount);\r\n        bytes32[] memory sbrands = new bytes32[](sellerCount);\r\n        bytes32[] memory scodes = new bytes32[](sellerCount);\r\n        uint256[] memory snums = new uint256[](sellerCount);\r\n        bytes32[] memory smanagers = new bytes32[](sellerCount);\r\n        bytes32[] memory saddress = new bytes32[](sellerCount);\r\n        \r\n        for(uint i=0; i<sellerCount; i++){\r\n            ids[i] = sellers[i].sellerId;\r\n            snames[i] = sellers[i].sellerName;\r\n            sbrands[i] = sellers[i].sellerBrand;\r\n            scodes[i] = sellers[i].sellerCode;\r\n            snums[i] = sellers[i].sellerNum;\r\n            smanagers[i] = sellers[i].sellerManager;\r\n            saddress[i] = sellers[i].sellerAddress;\r\n        }\r\n        return(ids, snames, sbrands, scodes, snums, smanagers, saddress);\r\n    }\r\n\r\n    //PRODUCT SECTION\r\n\r\n    function addProduct(bytes32 _manufactuerID, bytes32 _productName, bytes32 _productSN, bytes32 _productBrand,\r\n    uint256 _productPrice) public{\r\n        productItems[productCount] = productItem(productCount, _productSN, _productName, _productBrand,\r\n        _productPrice, \"Available\");\r\n        productMap[_productSN] = productCount;\r\n        productCount++;\r\n        productsManufactured[_productSN] = _manufactuerID;\r\n    }\r\n\r\n\r\n    function viewProductItems () public view returns(uint256[] memory, bytes32[] memory, bytes32[] memory, bytes32[] memory, uint256[] memory, bytes32[] memory) {\r\n        uint256[] memory pids = new uint256[](productCount);\r\n        bytes32[] memory pSNs = new bytes32[](productCount);\r\n        bytes32[] memory pnames = new bytes32[](productCount);\r\n        bytes32[] memory pbrands = new bytes32[](productCount);\r\n        uint256[] memory pprices = new uint256[](productCount);\r\n        bytes32[] memory pstatus = new bytes32[](productCount);\r\n        \r\n        for(uint i=0; i<productCount; i++){\r\n            pids[i] = productItems[i].productId;\r\n            pSNs[i] = productItems[i].productSN;\r\n            pnames[i] = productItems[i].productName;\r\n            pbrands[i] = productItems[i].productBrand;\r\n            pprices[i] = productItems[i].productPrice;\r\n            pstatus[i] = productItems[i].productStatus;\r\n        }\r\n        return(pids, pSNs, pnames, pbrands, pprices, pstatus);\r\n    }\r\n\r\n    //SELL Product\r\n\r\n    function manufacturerSellProduct(bytes32 _productSN, bytes32 _sellerCode) public{\r\n        productsWithSeller[_sellerCode].push(_productSN);\r\n        productsForSale[_productSN] = _sellerCode;\r\n\r\n    }\r\n\r\n    function sellerSellProduct(bytes32 _productSN, bytes32 _consumerCode, bytes32 _consumerName) public {\r\n    bytes32 pStatus;\r\n    uint256 i;\r\n    uint256 j=0;\r\n\r\n    if (productCount > 0) {\r\n        for (i = 0; i < productCount; i++) {\r\n            if (productItems[i].productSN == _productSN) {\r\n                j = i;\r\n            }\r\n        }\r\n    }\r\n\r\n    pStatus = productItems[j].productStatus;\r\n    if (pStatus == \"Available\") {\r\n        productItems[j].productStatus = \"NA\";\r\n        productsWithConsumer[_consumerCode].push(_productSN);\r\n        productsSold[_productSN] = _consumerCode;\r\n\r\n        // Add consumer details if new\r\n        if (consumerDetails[_consumerCode].consumerCode == bytes32(0)) {\r\n            consumers[consumerCount] = consumer(consumerCount, _consumerCode, _consumerName);\r\n            consumerDetails[_consumerCode] = consumer(consumerCount, _consumerCode, _consumerName);\r\n            consumerCount++;\r\n        }\r\n\r\n        // Link consumer with seller\r\n        bytes32 sellerCode = productsForSale[_productSN];\r\n        consumersWithSeller[sellerCode].push(_consumerCode);\r\n    }\r\n}\r\n\r\n\r\n\r\n    function queryProductsList(bytes32 _sellerCode) public view returns(uint256[] memory, bytes32[] memory, bytes32[] memory, bytes32[] memory, uint256[] memory, bytes32[] memory){\r\n        bytes32[] memory productSNs = productsWithSeller[_sellerCode];\r\n        uint256 k=0;\r\n\r\n        uint256[] memory pids = new uint256[](productCount);\r\n        bytes32[] memory pSNs = new bytes32[](productCount);\r\n        bytes32[] memory pnames = new bytes32[](productCount);\r\n        bytes32[] memory pbrands = new bytes32[](productCount);\r\n        uint256[] memory pprices = new uint256[](productCount);\r\n        bytes32[] memory pstatus = new bytes32[](productCount);\r\n\r\n        \r\n        for(uint i=0; i<productCount; i++){\r\n            for(uint j=0; j<productSNs.length; j++){\r\n                if(productItems[i].productSN==productSNs[j]){\r\n                    pids[k] = productItems[i].productId;\r\n                    pSNs[k] = productItems[i].productSN;\r\n                    pnames[k] = productItems[i].productName;\r\n                    pbrands[k] = productItems[i].productBrand;\r\n                    pprices[k] = productItems[i].productPrice;\r\n                    pstatus[k] = productItems[i].productStatus;\r\n                    k++;\r\n                }\r\n            }\r\n        }\r\n        return(pids, pSNs, pnames, pbrands, pprices, pstatus);\r\n    }\r\n\r\n    function querySellersList (bytes32 _manufacturerCode) public view returns(uint256[] memory, bytes32[] memory, bytes32[] memory, bytes32[] memory, uint256[] memory, bytes32[] memory, bytes32[] memory) {\r\n        bytes32[] memory sellerCodes = sellersWithManufacturer[_manufacturerCode];\r\n        uint256 k=0;\r\n        uint256[] memory ids = new uint256[](sellerCount);\r\n        bytes32[] memory snames = new bytes32[](sellerCount);\r\n        bytes32[] memory sbrands = new bytes32[](sellerCount);\r\n        bytes32[] memory scodes = new bytes32[](sellerCount);\r\n        uint256[] memory snums = new uint256[](sellerCount);\r\n        bytes32[] memory smanagers = new bytes32[](sellerCount);\r\n        bytes32[] memory saddress = new bytes32[](sellerCount);\r\n        \r\n        for(uint i=0; i<sellerCount; i++){\r\n            for(uint j=0; j<sellerCodes.length; j++){\r\n                if(sellers[i].sellerCode==sellerCodes[j]){\r\n                    ids[k] = sellers[i].sellerId;\r\n                    snames[k] = sellers[i].sellerName;\r\n                    sbrands[k] = sellers[i].sellerBrand;\r\n                    scodes[k] = sellers[i].sellerCode;\r\n                    snums[k] = sellers[i].sellerNum;\r\n                    smanagers[k] = sellers[i].sellerManager;\r\n                    saddress[k] = sellers[i].sellerAddress;\r\n                    k++;\r\n                    break;\r\n               }\r\n            }\r\n        }\r\n\r\n        return(ids, snames, sbrands, scodes, snums, smanagers, saddress);\r\n    }\r\n\r\n    function getPurchaseHistory(bytes32 _consumerCode) public view returns (bytes32[] memory, bytes32[] memory, bytes32[] memory){\r\n        bytes32[] memory productSNs = productsWithConsumer[_consumerCode];\r\n        bytes32[] memory sellerCodes = new bytes32[](productSNs.length);\r\n        bytes32[] memory manufacturerCodes = new bytes32[](productSNs.length);\r\n        for(uint i=0; i<productSNs.length; i++){\r\n            sellerCodes[i] = productsForSale[productSNs[i]];\r\n            manufacturerCodes[i] = productsManufactured[productSNs[i]];\r\n        }\r\n        return (productSNs, sellerCodes, manufacturerCodes);\r\n    }\r\n    function getConsumersForSeller(bytes32 _sellerCode) public view returns (\r\n    bytes32[] memory consumerCodes,\r\n    bytes32[] memory consumerNames\r\n) {\r\n    bytes32[] memory codes = consumersWithSeller[_sellerCode];\r\n    bytes32[] memory names = new bytes32[](codes.length);\r\n\r\n    for (uint i = 0; i < codes.length; i++) {\r\n        names[i] = consumerDetails[codes[i]].consumerName;\r\n    }\r\n\r\n    return (codes, names);\r\n}\r\n\r\n\r\n    //Verify\r\n\r\n    function verifyProduct(bytes32 _productSN, bytes32 _consumerCode) public view returns(bool){\r\n        if(productsSold[_productSN] == _consumerCode){\r\n            return true;\r\n        }\r\n        else{\r\n            return false;\r\n        }\r\n    }\r\n}",
  "sourcePath": "E:\\Fake-Product-Identification\\contracts\\product.sol",
  "compiler": {
    "name": "solc",
    "version": "0.8.12+commit.f00d7308.Emscripten.clang"
  },
  "schemaVersion": "3.4.16",
  "updatedAt": "2025-06-25T12:24:22.565Z",
  "devdoc": {
    "kind": "dev",
    "methods": {},
    "version": 1
  },
  "userdoc": {
    "kind": "user",
    "methods": {},
    "version": 1
  }
}